:100000000C9435000C945D000C945D000C945D0024
:100010000C945D000C945D000C945D000C945D00EC
:100020000C945D000C945D000C945D000C945D00DC
:100030000C945D000C945D000C945D000C945D00CC
:100040000C9437060C945D000C94A7060C94810662
:100050000C945D000C945D000C945D000C945D00AC
:100060000C945D000C945D00D90611241FBECFEFE7
:10007000D8E0DEBFCDBF11E0A0E0B1E0E6E0F3E103
:1000800002C005900D92A433B107D9F722E0A4E392
:10009000B1E001C01D92A433B207E1F710E0C5E35F
:1000A000D0E004C02197FE010E946709C433D10744
:1000B000C9F70E9415070C9481090C9400003FB702
:1000C000F8948091760190917701A0917801B09198
:1000D000790126B5A89B05C02F3F19F00196A11DF7
:1000E000B11D3FBFBA2FA92F982F8827BC01CD0182
:1000F000620F711D811D911D42E0660F771F881FE1
:10010000991F4A95D1F708954F925F926F927F920F
:100110009F92AF92BF92CF92DF92EF92FF920F9396
:100120001F93CF93DF9300D01F92CDB7DEB7F82E89
:1001300080912A0290912B02A0912C02B0912D0265
:10014000892B8A2B8B2BD9F00E945F0000918601AE
:10015000109187012091880130918901601B710BFA
:10016000820B930B00912A0210912B0220912C02FA
:1001700030912D026017710782079307C8F20E9421
:100180005F0060938601709387018093880190934C
:100190008901E0913202F0913302309759F0409199
:1001A0002E0250912F0260913002709131028F2DFA
:1001B0000995F82E00918401109185014F2C512C46
:1001C000712C612C0115110509F45EC0D8011C9633
:1001D000EC901C9780912802909129028436910519
:1001E00010F41C961C92D801ED91FC91A280B38072
:1001F00019821A821B82FF2089F1F8013696D12CD0
:10020000C12C2191222319F19280992001F130E033
:1002100050E040E02F5F3F4F4F4F5F4FC301B201AF
:100220000E94FB089B01AC01892D90E0B0E0A0E0AA
:10023000BC01CD016F5F7F4F8F4F9F4F0E94FB0826
:10024000A1E0B0E0AC0FBD1FAC0DBD1D8C93BFEFA6
:10025000CB1ADB0A83E0C816D10499F6D8011D96A3
:100260004D915C911E9712966D917C919E012F5F2E
:100270003F4FC801F5010995D8011C96EC921C97D7
:1002800014960D911C919ECF8091820190918301D3
:100290009C012F5F3F4F3093830120938201499748
:1002A0000CF445C08FB7F89420917A0130917B010E
:1002B00040917C0150917D018FBFE0918201F091CE
:1002C000830188EE93E0E89FB001E99F700DF89FED
:1002D000700D1124072E000C880B990BC0907E0125
:1002E000D0907F01E0908001F09081012C193D09B0
:1002F0004E095F090E941F093093290220932802AA
:1003000010928301109282012FB7F89480917A01A4
:1003100090917B01A0917C01B0917D012FBF8093D2
:100320007E0190937F01A0938001B09381010F9093
:100330000F900F90DF91CF911F910F91FF90EF9051
:10034000DF90CF90BF90AF909F907F906F905F9025
:100350004F9008958F929F92AF92BF92CF92DF926B
:10036000EF92FF920E945F004B015C0184EFC82E68
:10037000DD24D394E12CF12C0E945F0068197909E7
:100380008A099B09683E734081059105A8F321E025
:10039000C21AD108E108F10888EE880E83E0981EA1
:1003A000A11CB11CC114D104E104F10429F7FF9090
:1003B000EF90DF90CF90BF90AF909F908F90089577
:1003C00080E991E00895AF92BF92CF92DF92EF92D1
:1003D000FF920F931F93CF93DF936C017B018B01EF
:1003E000040F151FEB015E01AE18BF08C017D1073F
:1003F00059F06991D601ED91FC910190F081E02DC9
:10040000C6010995892B79F7C501DF91CF911F911D
:100410000F91FF90EF90DF90CF90BF90AF90089535
:10042000FC01538D448D252F30E0842F90E0821BFA
:10043000930B541710F0CF96089501970895FC017F
:10044000918D828D981761F0A28DAE0FBF2FB11DD7
:100450005D968C91928D9F5F9F73928F90E008952F
:100460008FEF9FEF0895FC01918D828D981731F0E9
:10047000828DE80FF11D858D90E008958FEF9FEF3D
:100480000895FC01918D228D892F90E0805C9F4F13
:10049000821B91098F73992708958AE891E00E9441
:1004A000410221E0892B09F420E0822F089580E0A9
:1004B00090E0892B29F00E944D0281110C940000DC
:1004C0000895FC01A48DA80FB92FB11DA35ABF4FE9
:1004D0002C91848D90E001968F739927848FA68943
:1004E000B7892C93A089B1898C91837080648C9397
:1004F000938D848D981306C00288F389E02D808146
:100500008F7D80830895EF92FF920F931F93CF9377
:10051000DF93EC0181E0888F9B8D8C8D98131AC03E
:10052000E889F989808185FF15C09FB7F894EE8925
:10053000FF896083E889F989808183708064808382
:100540009FBF81E090E0DF91CF911F910F91FF90CD
:10055000EF900895F62E0B8D10E00F5F1F4F0F7375
:100560001127E02E8C8D8E110CC00FB607FCFACF30
:10057000E889F989808185FFF5CFCE010E9461026B
:10058000F1CFEB8DEC0FFD2FF11DE35AFF4FF08201
:100590009FB7F8940B8FEA89FB8980818062CFCF67
:1005A000CF93DF93EC01888D8823B9F0AA89BB89AA
:1005B000E889F9898C9185FD03C0808186FD0DC095
:1005C0000FB607FCF7CF8C9185FFF2CF808185FFB6
:1005D000EDCFCE010E946102E9CFDF91CF91089566
:1005E0000F931F93CF93DF93209135012F5F322F0D
:1005F00037703093350120FF2BC020E831FD206497
:10060000347009F02062205FFC01EC01239600E0C9
:1006100011E06485662329F070E0C8010E940B098F
:100620006F5F6187322F369F030E30E0311D11243A
:10063000311110C01682662311F061506187319626
:10064000EC17FD0731F7DF91CF911F910F910895BE
:1006500020E0D4CF31503683EECF4F925F926F922D
:100660007F928F929F92AF92CF92DF92EF92FF9202
:100670000F931F93CF93DF933C01EB010E945F0028
:10068000F30127853089621B730B6A307105B0F363
:10069000F894E881F98105B1006115B11F7E15B9A3
:1006A000CA848F814C2D481B842F4F839F844A809E
:1006B0005B80FD84EC84DE84F394E394D3949E8188
:1006C00038858984AB844181D20120E0622F722F6A
:1006D0007181442788947111780F08F47FEF819518
:1006E0008894F0FC470F47958894F1FC470F479595
:1006F0008894F2FC470F47958894F3FC470F479581
:100700008894F4FC470F47958894F5FC470F47956C
:100710008894F6FC470F47958894F7FC470F479558
:100720008894272FF110242F8C0D422F002C05B90F
:1007300000C047FF15B970812227889400C000C00F
:10074000002C15B97111790F00C0002C05B900C03B
:1007500046FF15B908F47FEF9195889400C000C05A
:10076000002C15B9E0FC270F00C0002C05B900C013
:1007700045FF15B927958894E1FC270F00C000C0FC
:10078000002C15B92795889400C0002C05B900C02D
:1007900044FF15B9E2FC270F2795889400C000C0DC
:1007A000002C15B9E3FC270F00C0002C05B900C0D0
:1007B00043FF15B927958894E4FC270F00C000C0BB
:1007C000002C15B92795889400C0002C05B900C0ED
:1007D00042FF15B9E5FC270F2795889400C000C09B
:1007E000002C15B9E6FC270F00C0002C05B900C08D
:1007F00041FF15B927958894E7FC270F00C000C07A
:10080000002C15B92795889400C0002C05B900C0AC
:1008100040FF15B9472FE110422F980D00C000C0CE
:10082000002C15B900C000C0002C05B900C047FF5E
:1008300015B972812227889400C000C0002C15B918
:100840007111730F00C0002C05B900C046FF15B927
:1008500008F47FEFE90DF11D00C000C0002C15B9B0
:10086000D0FC270F00C0002C05B900C045FF15B90A
:1008700027958894D1FC270F00C000C0002C15B923
:100880002795889400C0002C05B900C044FF15B915
:10089000D2FC270F2795889400C000C0002C15B902
:1008A000D3FC270F00C0002C05B900C043FF15B9C9
:1008B00027958894D4FC270F00C000C0002C15B9E0
:1008C0002795889400C0002C05B900C042FF15B9D7
:1008D000D5FC270F2795889400C000C0002C15B9BF
:1008E000D6FC270F00C0002C05B900C041FF15B988
:1008F00027958894D7FC270F00C000C0002C15B99D
:100900002795889400C0002C05B900C040FF15B998
:10091000472FD110422F319500C000C0002C15B9CF
:100920003A0D00C000C005B900C047FF15B971817C
:100930002227889400C000C0002C15B97111780FCF
:1009400000C0002C05B900C046FF15B908F47FEFC0
:100950008195889400C000C0002C15B9F0FC270FC9
:1009600000C0002C05B900C045FF15B92795889433
:10097000F1FC270F00C000C0002C15B92795889402
:1009800000C0002C05B900C044FF15B9F2FC270FC8
:100990002795889400C000C0002C15B9F3FC270FE0
:1009A00000C0002C05B900C043FF15B927958894F5
:1009B000F4FC270F00C000C0002C15B927958894BF
:1009C00000C0002C05B900C042FF15B9F5FC270F87
:1009D0002795889400C000C0002C15B9F6FC270F9D
:1009E00000C0002C05B900C041FF15B927958894B7
:1009F000F7FC270F00C000C0002C15B9279588947C
:100A000000C0002C05B900C040FF15B9472FF110F8
:100A1000422F8C0D00C000C0002C15B9119709F0B1
:100A200086CE20EE31E0D2010E944109DC01CB01EB
:100A3000F4E0B695A79597958795FA95D1F730E0AC
:100A400020E0B901EAE94E9E040C611D5E9E600D36
:100A5000711D1124650D711D860F971FA11DB11DFC
:100A6000893EE3E09E07A105B10508F434C0885E25
:100A70009340A109B10942E0B695A795979587954E
:100A80004A95D1F747E0849F080E211D949F200DC1
:100A9000311D1124290F311D6091340170E0860F42
:100AA000971F820F931F40917A0150917B016091B3
:100AB0007C0170917D01292F3327420F531F611D47
:100AC000711D40937A0150937B0160937C01709378
:100AD0007D018093340178940E945F00F301708B54
:100AE0006787DF91CF911F910F91FF90EF90DF907B
:100AF000CF90AF909F908F907F906F905F904F902E
:100B00000895249A08950F931F93CF93DF93CDB741
:100B1000DEB762970FB6F894DEBF0FBECDBF8C0173
:100B2000F901DC011C968C917A8369835C834B8389
:100B30005E834D8390819D8791819E8792819F875F
:100B40008130F1F4CE0101960E94F00283E0888B9F
:100B50001A8A198AD801ED91FC910484F585E02D5B
:100B6000BE016F5F7F4FC801099562960FB6F8947A
:100B7000DEBF0FBECDBFDF91CF911F910F910895C2
:100B80001C861B861A86198618861F82DFCF0F9354
:100B90001F93CF93DF93CDB7DEB762970FB6F8946C
:100BA000DEBF0FBECDBF8C01F901DC011C968C911C
:100BB0007A8369835C834B835E834D8390819D87B9
:100BC00091819E8792819F878130E9F4CE010196C1
:100BD0000E94F002188A1A8A198AD801ED91FC91B4
:100BE0000484F585E02DBE016F5F7F4FC801099534
:100BF00062960FB6F894DEBF0FBECDBFDF91CF91E6
:100C00001F910F9108951C861B861A8619861886D7
:100C10001F82E0CF90E080E00895FC0185859685F5
:100C20000895CF93DF9300D000D000D0CDB7DEB7CA
:100C3000AB011C821D821E82DC01ED91FC910190B2
:100C4000F081E02D19821A821B829E012F5F3F4F97
:100C5000BE016C5F7F4F099526960FB6F894DEBFF4
:100C60000FBECDBFDF91CF9108950E947C091F92E6
:100C70000F920FB60F9211242F933F938F939F9350
:100C8000AF93BF9380917A0190917B01A0917C01F9
:100C9000B0917D013091750123E0230F2D3758F578
:100CA0000196A11DB11D2093750180937A01909347
:100CB0007B01A0937C01B0937D018091760190919E
:100CC0007701A0917801B09179010196A11DB11D24
:100CD0008093760190937701A0937801B093790186
:100CE000BF91AF919F918F913F912F910F900FBE28
:100CF0000F901F90189526E8230F0296A11DB11D95
:100D0000D2CF1F920F920FB60F9211242F933F93C1
:100D10004F935F936F937F938F939F93AF93BF9303
:100D2000EF93FF938AE891E00E946102FF91EF91B7
:100D3000BF91AF919F918F917F916F915F914F91F3
:100D40003F912F910F900FBE0F901F9018951F92FB
:100D50000F920FB60F9211242F938F939F93EF93BF
:100D6000FF93E0919A01F0919B018081E091A001B5
:100D7000F091A10182FD1BC090818091A3018F5F42
:100D80008F732091A401821741F0E091A301F0E05C
:100D9000E657FE4F958F8093A301FF91EF919F91AE
:100DA0008F912F910F900FBE0F901F9018958081FB
:100DB000F4CFEAE8F1E01382128288EE93E0A0E03B
:100DC000B0E084839583A683B78386E291E0918324
:100DD000808385EC90E09587848784EC90E097870A
:100DE000868780EC90E0918B808B81EC90E0938BF8
:100DF000828B82EC90E0958B848B86EC90E0978BD5
:100E0000868B118E128E138E148EE7E2F2E08FEF36
:100E1000808312821182148613868FEF9FEFDC018C
:100E200087839087A187B2870895789484B582607C
:100E300084BD84B5816084BD85B5826085BD85B57E
:100E4000816085BD80916E00816080936E001092FC
:100E50008100809181008260809381008091810077
:100E60008160809381008091800081608093800008
:100E70008091B10084608093B1008091B000816066
:100E80008093B00080917A00846080937A00809192
:100E90007A00826080937A0080917A0081608093EA
:100EA0007A0080917A00806880937A001092C10065
:100EB00080914901811145C010923B0110923A0185
:100EC0008FEF80933E0180933F0180934001809398
:100ED0004101809342018093430181E0809344016A
:100EE000109246011092450110923D0110923C0172
:100EF0008091840190918501892B31F488E391E000
:100F00009093850180938401E0913601F09137013F
:100F1000309721F088E391E09583848388E391E022
:100F20009093370180933601109248011092470147
:100F300084E191E0909339018093380181E08093BE
:100F40004901249A81E591E090933B0180933A0115
:100F50008CE090E0909346018093450180912A02B5
:100F600090912B02A0912C02B0912D02843C29E09B
:100F70009207A105B10520F484EC99E0A0E0B0E06F
:100F800080932A0290932B02A0932C02B0932D02FF
:100F9000E0919A01F0919B0182E08083E0919601BB
:100FA000F09197011082E0919801F09199018FECF6
:100FB00080831092A201E0919E01F0919F0186E052
:100FC0008083E0919C01F0919D018081806180830C
:100FD000E0919C01F0919D01808188608083E09187
:100FE0009C01F0919D01808180688083E0919C014B
:100FF000F0919D0180818F7D8083CFEFD4E611EE4B
:101000000FEA80E0E82E80E0F82EC09351011092A4
:10101000520110925301C093540110925501109245
:101020005601C0935701D093580110925901C093B3
:101030005A01D0935B0110925C01C0935D01109343
:101040005E0100935F01C093600110936101009302
:101050006201C09363011093640100936501C09322
:1010600066011093670100936801C0936901D093F2
:101070006A0110926B01C0936C01D0936D011092C4
:101080006E01C0936F011092700110927101C093B4
:1010900072011092730110927401809127020E94D4
:1010A00084000E94AA01C0935D0110925E0110921B
:1010B0005F01C09360011092610110926201C093C0
:1010C0005101D093520110925301C0935401D09317
:1010D000550110925601C093570110935801009387
:1010E0005901C0935A0110935B0100935C01C093B6
:1010F00063011092640110926501C0936601109221
:10110000670110926801C093690110936A0100930E
:101110006B01C0936C0110936D0100936E01C0933D
:101120006F01D093700110927101C0937201D0933E
:10113000730110927401809127020E9484000E9422
:10114000AA01C09357011092580110925901C093FF
:101150005A0110925B0110925C01C0935D01D09323
:101160005E0110925F01C0936001D0936101109203
:101170006201C09351011093520100935301C09337
:1011800054011093550100935601C0936301D0930D
:10119000640110926501C0936601D09367011092BB
:1011A0006801C093690110926A0110926B01C093AB
:1011B0006C0110926D0110926E01C0936F0110933B
:1011C000700100937101C093720110937301009339
:1011D0007401809127020E9484000E94AA01E114F8
:1011E000F10409F412CF0E944D02882309F40DCFB7
:1011F0000E9400000ACFDB018F939F930E94480951
:10120000BF91AF91A29F800D911DA39F900DB29FA2
:10121000900D1124089597FB072E16F4009407D023
:1012200077FD09D00E94530907FC05D03EF4909544
:1012300081959F4F0895709561957F4F0895A1E224
:101240001A2EAA1BBB1BFD010DC0AA1FBB1FEE1F40
:10125000FF1FA217B307E407F50720F0A21BB30B8B
:10126000E40BF50B661F771F881F991F1A9469F707
:1012700060957095809590959B01AC01BD01CF0163
:1012800008950E946D09B7FF0895821B930B08957E
:101290000E946D09A59F900DB49F900DA49F800D95
:1012A000911D11240895AA1BBB1B51E107C0AA1F61
:1012B000BB1FA617B70710F0A61BB70B881F991FF7
:1012C0005A95A9F780959095BC01CD010895EE0F30
:1012D000FF1F0590F491E02D0994A29FB001B39FE8
:1012E000C001A39F700D811D1124911DB29F700D2F
:1012F000811D1124911D089581E090E0F8940C94D3
:061300008109F894FFCF03
:101306000000000035063506350611060D060A06EC
:1013160000000000C7058305810511060D06E001E2
:101326002D03000000008302E3011002D0024102F7
:041336001F0233025D
:00000001FF
